{
  "contractName": "DecentralBank",
  "abi": [
    {
      "inputs": [
        {
          "internalType": "contract GBL",
          "name": "_gbl",
          "type": "address"
        },
        {
          "internalType": "contract InBloom",
          "name": "_inbloom",
          "type": "address"
        }
      ],
      "stateMutability": "nonpayable",
      "type": "constructor"
    },
    {
      "inputs": [],
      "name": "gbl",
      "outputs": [
        {
          "internalType": "contract GBL",
          "name": "",
          "type": "address"
        }
      ],
      "stateMutability": "view",
      "type": "function"
    },
    {
      "inputs": [
        {
          "internalType": "address",
          "name": "",
          "type": "address"
        }
      ],
      "name": "hasStaked",
      "outputs": [
        {
          "internalType": "bool",
          "name": "",
          "type": "bool"
        }
      ],
      "stateMutability": "view",
      "type": "function"
    },
    {
      "inputs": [],
      "name": "inbloom",
      "outputs": [
        {
          "internalType": "contract InBloom",
          "name": "",
          "type": "address"
        }
      ],
      "stateMutability": "view",
      "type": "function"
    },
    {
      "inputs": [
        {
          "internalType": "address",
          "name": "",
          "type": "address"
        }
      ],
      "name": "isStaking",
      "outputs": [
        {
          "internalType": "bool",
          "name": "",
          "type": "bool"
        }
      ],
      "stateMutability": "view",
      "type": "function"
    },
    {
      "inputs": [],
      "name": "name",
      "outputs": [
        {
          "internalType": "string",
          "name": "",
          "type": "string"
        }
      ],
      "stateMutability": "view",
      "type": "function"
    },
    {
      "inputs": [],
      "name": "owner",
      "outputs": [
        {
          "internalType": "address",
          "name": "",
          "type": "address"
        }
      ],
      "stateMutability": "view",
      "type": "function"
    },
    {
      "inputs": [
        {
          "internalType": "uint256",
          "name": "",
          "type": "uint256"
        }
      ],
      "name": "stakers",
      "outputs": [
        {
          "internalType": "address",
          "name": "",
          "type": "address"
        }
      ],
      "stateMutability": "view",
      "type": "function"
    },
    {
      "inputs": [
        {
          "internalType": "address",
          "name": "",
          "type": "address"
        }
      ],
      "name": "stakingBalance",
      "outputs": [
        {
          "internalType": "uint256",
          "name": "",
          "type": "uint256"
        }
      ],
      "stateMutability": "view",
      "type": "function"
    },
    {
      "inputs": [
        {
          "internalType": "uint256",
          "name": "_amount",
          "type": "uint256"
        }
      ],
      "name": "depositTokens",
      "outputs": [],
      "stateMutability": "nonpayable",
      "type": "function"
    },
    {
      "inputs": [],
      "name": "unstakeTokens",
      "outputs": [],
      "stateMutability": "nonpayable",
      "type": "function"
    },
    {
      "inputs": [],
      "name": "issueTokens",
      "outputs": [],
      "stateMutability": "nonpayable",
      "type": "function"
    }
  ],
  "bytecode": "0x60806040526040518060400160405280600e81526020017f446563656e7472616c2042616e6b0000000000000000000000000000000000008152506000908051906020019061004f929190610164565b5034801561005c57600080fd5b50604051610e77380380610e778339818101604052604081101561007f57600080fd5b81019080805190602001909291908051906020019092919050505081600360006101000a81548173ffffffffffffffffffffffffffffffffffffffff021916908373ffffffffffffffffffffffffffffffffffffffff16021790555080600260006101000a81548173ffffffffffffffffffffffffffffffffffffffff021916908373ffffffffffffffffffffffffffffffffffffffff16021790555033600160006101000a81548173ffffffffffffffffffffffffffffffffffffffff021916908373ffffffffffffffffffffffffffffffffffffffff160217905550505061020f565b828054600181600116156101000203166002900490600052602060002090601f01602090048101928261019a57600085556101e1565b82601f106101b357805160ff19168380011785556101e1565b828001600101855582156101e1579182015b828111156101e05782518255916020019190600101906101c5565b5b5090506101ee91906101f2565b5090565b5b8082111561020b5760008160009055506001016101f3565b5090565b610c598061021e6000396000f3fe608060405234801561001057600080fd5b50600436106100a95760003560e01c80638da5cb5b116100715780638da5cb5b1461022157806395c6b7d214610255578063a5ce413b14610289578063c93c8f3414610293578063dd49756e146102ed578063fd5e6dd11461031b576100a9565b806306fdde03146100ae5780630e4066931461013157806345bc78ab1461016557806360ab5852146101bd5780636f49712b146101c7575b600080fd5b6100b6610373565b6040518080602001828103825283818151815260200191508051906020019080838360005b838110156100f65780820151818401526020810190506100db565b50505050905090810190601f1680156101235780820380516001836020036101000a031916815260200191505b509250505060405180910390f35b610139610411565b604051808273ffffffffffffffffffffffffffffffffffffffff16815260200191505060405180910390f35b6101a76004803603602081101561017b57600080fd5b81019080803573ffffffffffffffffffffffffffffffffffffffff169060200190929190505050610437565b6040518082815260200191505060405180910390f35b6101c561044f565b005b610209600480360360208110156101dd57600080fd5b81019080803573ffffffffffffffffffffffffffffffffffffffff1690602001909291905050506105d4565b60405180821515815260200191505060405180910390f35b6102296105f4565b604051808273ffffffffffffffffffffffffffffffffffffffff16815260200191505060405180910390f35b61025d61061a565b604051808273ffffffffffffffffffffffffffffffffffffffff16815260200191505060405180910390f35b610291610640565b005b6102d5600480360360208110156102a957600080fd5b81019080803573ffffffffffffffffffffffffffffffffffffffff16906020019092919050505061084c565b60405180821515815260200191505060405180910390f35b6103196004803603602081101561030357600080fd5b810190808035906020019092919050505061086c565b005b6103476004803603602081101561033157600080fd5b8101908080359060200190929190505050610bbc565b604051808273ffffffffffffffffffffffffffffffffffffffff16815260200191505060405180910390f35b60008054600181600116156101000203166002900480601f0160208091040260200160405190810160405280929190818152602001828054600181600116156101000203166002900480156104095780601f106103de57610100808354040283529160200191610409565b820191906000526020600020905b8154815290600101906020018083116103ec57829003601f168201915b505050505081565b600360009054906101000a900473ffffffffffffffffffffffffffffffffffffffff1681565b60056020528060005260406000206000915090505481565b60005b6004805490508110156105d15760006004828154811061046e57fe5b9060005260206000200160009054906101000a900473ffffffffffffffffffffffffffffffffffffffff1690506000600a600560008473ffffffffffffffffffffffffffffffffffffffff1673ffffffffffffffffffffffffffffffffffffffff16815260200190815260200160002054816104e657fe5b04905060008111156105c257600360009054906101000a900473ffffffffffffffffffffffffffffffffffffffff1673ffffffffffffffffffffffffffffffffffffffff1663a9059cbb83836040518363ffffffff1660e01b8152600401808373ffffffffffffffffffffffffffffffffffffffff16815260200182815260200192505050602060405180830381600087803b15801561058557600080fd5b505af1158015610599573d6000803e3d6000fd5b505050506040513d60208110156105af57600080fd5b8101908080519060200190929190505050505b50508080600101915050610452565b50565b60076020528060005260406000206000915054906101000a900460ff1681565b600160009054906101000a900473ffffffffffffffffffffffffffffffffffffffff1681565b600260009054906101000a900473ffffffffffffffffffffffffffffffffffffffff1681565b6000600560003373ffffffffffffffffffffffffffffffffffffffff1673ffffffffffffffffffffffffffffffffffffffff168152602001908152602001600020549050600081116106dd576040517f08c379a0000000000000000000000000000000000000000000000000000000008152600401808060200182810382526028815260200180610bfc6028913960400191505060405180910390fd5b600260009054906101000a900473ffffffffffffffffffffffffffffffffffffffff1673ffffffffffffffffffffffffffffffffffffffff1663a9059cbb33836040518363ffffffff1660e01b8152600401808373ffffffffffffffffffffffffffffffffffffffff16815260200182815260200192505050602060405180830381600087803b15801561077057600080fd5b505af1158015610784573d6000803e3d6000fd5b505050506040513d602081101561079a57600080fd5b8101908080519060200190929190505050506000600560003373ffffffffffffffffffffffffffffffffffffffff1673ffffffffffffffffffffffffffffffffffffffff168152602001908152602001600020819055506000600760003373ffffffffffffffffffffffffffffffffffffffff1673ffffffffffffffffffffffffffffffffffffffff16815260200190815260200160002060006101000a81548160ff02191690831515021790555050565b60066020528060005260406000206000915054906101000a900460ff1681565b600081116108e2576040517f08c379a00000000000000000000000000000000000000000000000000000000081526004018080602001828103825260128152602001807f616d6f756e742063616e6e6f742062652030000000000000000000000000000081525060200191505060405180910390fd5b600260009054906101000a900473ffffffffffffffffffffffffffffffffffffffff1673ffffffffffffffffffffffffffffffffffffffff166323b872dd3330846040518463ffffffff1660e01b8152600401808473ffffffffffffffffffffffffffffffffffffffff1681526020018373ffffffffffffffffffffffffffffffffffffffff1681526020018281526020019350505050602060405180830381600087803b15801561099357600080fd5b505af11580156109a7573d6000803e3d6000fd5b505050506040513d60208110156109bd57600080fd5b81019080805190602001909291905050505080600560003373ffffffffffffffffffffffffffffffffffffffff1673ffffffffffffffffffffffffffffffffffffffff1681526020019081526020016000205401600560003373ffffffffffffffffffffffffffffffffffffffff1673ffffffffffffffffffffffffffffffffffffffff16815260200190815260200160002081905550600660003373ffffffffffffffffffffffffffffffffffffffff1673ffffffffffffffffffffffffffffffffffffffff16815260200190815260200160002060009054906101000a900460ff16610b09576004339080600181540180825580915050600190039060005260206000200160009091909190916101000a81548173ffffffffffffffffffffffffffffffffffffffff021916908373ffffffffffffffffffffffffffffffffffffffff1602179055505b6001600760003373ffffffffffffffffffffffffffffffffffffffff1673ffffffffffffffffffffffffffffffffffffffff16815260200190815260200160002060006101000a81548160ff0219169083151502179055506001600660003373ffffffffffffffffffffffffffffffffffffffff1673ffffffffffffffffffffffffffffffffffffffff16815260200190815260200160002060006101000a81548160ff02191690831515021790555050565b60048181548110610bcc57600080fd5b906000526020600020016000915054906101000a900473ffffffffffffffffffffffffffffffffffffffff168156fe7374616b696e672062616c616e63652063616e6e6f74206265206c657373207468616e207a65726fa2646970667358221220e6929bc98c4f4fd5108a0087a4c3108ea0bea88bc3ae274190f6af8214b2867164736f6c63430007060033",
  "immutableReferences": {},
  "source": "// SPDX-License-Identifier: GPL-3.0\npragma solidity >=0.7.0 <0.9.0;\n\nimport './GBL.sol';\nimport './InBloom.sol';\n\ncontract DecentralBank {\n  string public name = 'Decentral Bank';\n  address public owner;\n  InBloom public inbloom;\n  GBL public gbl;\n\n  address[] public stakers;\n\n  mapping(address => uint) public stakingBalance;\n  mapping(address => bool) public hasStaked;\n  mapping(address => bool) public isStaking;\n\nconstructor(GBL _gbl, InBloom _inbloom) {\n    gbl = _gbl;\n    inbloom = _inbloom;\n    owner = msg.sender;\n}\n\n  // staking function   \nfunction depositTokens(uint _amount) public {\n\n  // require staking amount to be greater than zero\n    require(_amount > 0, 'amount cannot be 0');\n  \n  // Transfer inbloom tokens to this contract address for staking\n  inbloom.transferFrom(msg.sender, address(this), _amount);\n\n  // Update Staking Balance\n  stakingBalance[msg.sender] = stakingBalance[msg.sender] + _amount;\n\n  if(!hasStaked[msg.sender]) {\n    stakers.push(msg.sender);\n  }\n\n  // Update Staking Balance\n    isStaking[msg.sender] = true;\n    hasStaked[msg.sender] = true;\n}\n\n  // unstake tokens\n  function unstakeTokens() public {\n    uint balance = stakingBalance[msg.sender];\n    // require the amount to be greater than zero\n    require(balance > 0, 'staking balance cannot be less than zero');\n\n    // transfer the tokens to the specified contract address from our bank\n    inbloom.transfer(msg.sender, balance);\n\n    // reset staking balance\n    stakingBalance[msg.sender] = 0;\n\n    // Update Staking Status\n    isStaking[msg.sender] = false;\n\n  }\n\n  // issue rewards\n        function issueTokens() public {\n            // Only owner can call this function\n            // require(msg.sender == owner, 'caller must be the owner');\n\n            // issue tokens to all stakers\n            for (uint i=0; i<stakers.length; i++) {\n                address recipient = stakers[i]; \n                uint balance = stakingBalance[recipient] / 10;\n                if(balance > 0) {\n                gbl.transfer(recipient, balance);\n            }\n       }\n       }\n}",
  "sourcePath": "C:\\Users\\Mouzone\\Documents\\BLOOMDAO\\WORKSPACE\\DeFi-App-Eth-main\\src\\contracts\\DecentralBank.sol",
  "compiler": {
    "name": "solc",
    "version": "0.7.6+commit.7338295f.Emscripten.clang"
  },
  "schemaVersion": "3.4.7",
  "updatedAt": "2022-05-01T16:02:49.954Z",
  "devdoc": {
    "kind": "dev",
    "methods": {},
    "version": 1
  },
  "userdoc": {
    "kind": "user",
    "methods": {},
    "version": 1
  }
}